:1000000012C124C123C122C121C120C11FC11EC1EF
:100010001DC11CC11BC11AC119C118C117C1544F40
:100020004F20484F5421212100506F776572204F97
:100030006E00506F776572204F66660020446567DA
:100040002043200020446567204620002E006D5686
:1000500000000000000000002F0000000700070063
:10006000147F147F14242A7F2A1262640813233613
:10007000495522500005030000001C2241000041A8
:10008000221C0014083E081408083E08080000A0BE
:1000900060000808080808006060000020100804DC
:1000A000023E5149453E00427F400042615149466F
:1000B0002141454B311814127F1027454545393CE5
:1000C0004A4949300171090503364949493606490B
:1000D00049291E003636000000563600000814225A
:1000E000410014141414140041221408020151098F
:1000F00006324959513E7C1211127C7F49494936DA
:100100003E414141227F4141221C7F494949417F73
:10011000090909013E4149497A7F0808087F0041E1
:100120007F41002040413F017F081422417F404031
:1001300040407F020C027F7F0408107F3E41414116
:100140003E7F090909063E4151215E7F0919294672
:10015000464949493101017F01013F4040403F1F6D
:100160002040201F3F4038403F63140814630708B5
:100170007008076151494543007F4141000204086E
:1001800010200041417F0004020102044040404031
:1001900040000305000020545454787F48444438FC
:1001A0003844444420384444487F38545454180850
:1001B0007E09010218A4A4A47C7F080404780044EA
:1001C0007D40004080847D007F1028440000417FF6
:1001D00040007C041804787C0804047838444444C3
:1001E00038FC2424241818242418FC7C080404084F
:1001F0004854545420043F4440203C4040207C1C40
:100200002040201C3C4030403C44281028441CA086
:10021000A0A07C4464544C44A81F2200032000DAB0
:10022000028D14AFA1C811241FBECFE5D2E0DEBFFE
:10023000CDBF10E0A0E6B0E0E8E9FBE002C0059029
:100240000D92A436B107D9F732D1A4C4D9CEBF924A
:10025000CF92DF92EF92FF920F931F93CF93DF9392
:1002600000D000D000D00F92CDB7DEB76B019C015B
:10027000990F440B550B2C833D834E835F83CA013A
:10028000B90136D320E030E040E251E46C837D8355
:100290008E839F836C817D818E819F81B9D36C8396
:1002A0007D838E839F836C817D818E819F81F2D23D
:1002B0007B01CB016AE070E0E5D1CB014AE08E0121
:1002C0000F5F1F4FB80133D4B12CF801019000200B
:1002D000E9F73197E01BF10B8B2D90E08E179F070C
:1002E00078F18CE490E0ABD0C7016AE070E0CAD14D
:1002F0004AE0B8011CD4F12CF80101900020E9F784
:100300003197E01BF10B8F2D90E08E179F07F8F0CF
:100310008CE390E0CA94CD2811F084E490E08FD073
:1003200027960FB6F894DEBF0FBECDBFDF91CF91F9
:100330001F910F91FF90EF90DF90CF90BF900895A5
:10034000800F911FFC01808157D0B394BECF800FE6
:10035000911FFC01808150D0F394CECF82E887B901
:1003600083E886B90895369A349BFECF349A84B1D7
:1003700095B1089584B7877F84BF88E181BD11BCA2
:10038000089587B38A7F87BB88B38A7F88BB089527
:1003900098E0B89A87FDB898BA98880FBA9A9150A1
:1003A000C1F7B898BA98BA9A0895B89ABA9AF0CF9D
:1003B000B89ABA98B8980895CF93DF93E2DF88E7A8
:1003C000F4DF80E0E5DFC8E1D2E0FE018491E0DF08
:1003D0002196F2E0C432DF07C1F7DF91CF91E8CF79
:1003E000CF93C82F88E7E1DF80E0D2DF83EDD0DF55
:1003F0008C2FCEDFCF91DCCF1F93CF93DF93C82F0D
:1004000088E7D3DF80E4C4DF8C2FCC0F990B809773
:10041000EC01CC0FDD1FCC0FDD1FC80FD91F80E012
:10042000B7DFCF5ADF4F15E0FE018491B1DF1150E5
:1004300021961111F9CFDF91CF911F91B9CFCF93B1
:10044000DF93EC01FE018491811103C0DF91CF9114
:10045000AFCFD2DF2196F6CFCF93DF93C82FD62F21
:1004600088E7A3DF80E094DF8C2F8F7091DF8C2FE3
:1004700082958F7080618CDF8D2F8770806B88DF15
:10048000DF91CF9195CFCF93DF9360E080E0E4DF01
:1004900088E78BDF80E47CDFC0E0D2E080E078DFBB
:1004A0002197E1F785DF80E0DF91CF9199CF00D0F0
:1004B00000D000D00F92CDB7DEB75CDF4FDF7CDF1E
:1004C000E2DF29E130E03E832D8319821A821B820C
:1004D0001C8249DF29813A814B815C81280F391FB9
:1004E000411D511D29833A834B835C834D815E817D
:1004F000415051095E834D83452B59F769817A81BB
:100500008B819C8129E130E040E050E0CFD0C901EF
:10051000B0E0A0E089839A83AB83BC83B901CD01AD
:10052000E5D12DEC3CEC4CE85FE369837A838B8367
:100530009C8369817A818B819C816AD22AE037ED24
:1005400043E251E469837A838B839C8369817A8156
:100550008B819C8132D120E030E048E452E4698311
:100560007A838B839C8369817A818B819C81C0D0C3
:100570006B017C0126E636E646EE5FE36983DA82AC
:100580008B83FC8269817A818B819C8141D220E0BE
:1005900030E040E052E469837A838B839C836981F5
:1005A0007A818B819C81A5D08B018F839D83698308
:1005B0001A838B839C8369817A818B819C8165D12D
:1005C000362F272F70E060E0832F922F40DE20E04F
:1005D00030E04CE852E409831A839F819B83AD810C
:1005E000AC8369817A818B819C810ED2181634F498
:1005F00061E082E331DF8EE190E021DFBFEB27E2B3
:1006000039E0B15020403040E1F700C000003BDF4E
:10061000C982DA82EB82FC8269817A818B819C813A
:1006200034D1362F272F61E070E0832F922F0FDE19
:1006300020E030E04CE852E409831A838F818B83F9
:100640009D819C8369817A818B819C81DDD1181683
:1006500034F461E082E300DF8EE190E0F0DEAFEBA6
:10066000B7E229E0A150B0402040E1F700C000000F
:100670000ADF88E199E20FB6F894A89581BD0FBE14
:1006800091BDFFCFAA1BBB1B51E107C0AA1FBB1F17
:10069000A617B70710F0A61BB70B881F991F5A950E
:1006A000A9F780959095BC01CD010895A1E21A2E7D
:1006B000AA1BBB1BFD010DC0AA1FBB1FEE1FFF1F06
:1006C000A217B307E407F50720F0A21BB30BE40B56
:1006D000F50B661F771F881F991F1A9469F760959D
:1006E0007095809590959B01AC01BD01CF01089557
:1006F0005058BB27AA270ED04DC13ED130F043D170
:1007000020F031F49F3F11F41EF433C10EF4E09554
:10071000E7FB29C1E92F4FD180F3BA1762077307AE
:100720008407950718F071F49EF567C10EF4E09503
:100730000B2EBA2FA02D0B01B90190010C01CA019B
:10074000A0011124FF27591B99F0593F50F4503E46
:1007500068F11A16F040A22F232F342F4427585F38
:10076000F3CF469537952795A795F0405395C9F750
:100770007EF41F16BA0B620B730B840BBAF0915008
:10078000A1F0FF0FBB1F661F771F881FC2F70EC0A7
:10079000BA0F621F731F841F48F48795779567957A
:1007A000B795F7959E3F08F0B3CF9395880F08F063
:1007B0009927EE0F9795879508950CD0EBC0E3D05D
:1007C00040F0DAD030F021F45F3F19F0CCC0511185
:1007D00015C1CFC0F0D098F39923C9F35523B1F3D5
:1007E000951B550BBB27AA2762177307840738F0A0
:1007F0009F5F5F4F220F331F441FAA1FA9F333D0FF
:100800000E2E3AF0E0E830D091505040E695001CB2
:10081000CAF729D0FE2F27D0660F771F881FBB1F6E
:10082000261737074807AB07B0E809F0BB0B802D48
:10083000BF01FF2793585F4F2AF09E3F510568F094
:1008400092C0DCC05F3FECF3983EDCF38695779571
:100850006795B795F7959F5FC9F7880F911D969596
:10086000879597F90895E1E0660F771F881FBB1FF2
:10087000621773078407BA0720F0621B730B840B9F
:10088000BA0BEE1F88F7E095089504D06894B11173
:10089000B5C0089598D088F09F5790F0B92F992748
:1008A000B751A0F0D1F0660F771F881F991F1AF07B
:1008B000BA95C9F712C0B13081F09FD0B1E0089568
:1008C0009CC0672F782F8827B85F39F0B93FCCF3E9
:1008D000869577956795B395D9F73EF49095809571
:1008E000709561957F4F8F4F9F4F0895E89409C091
:1008F00097FB3EF490958095709561957F4F8F4F53
:100900009F4F9923A9F0F92F96E9BB279395F69568
:10091000879577956795B795F111F8CFFAF4BB0FE6
:1009200011F460FF1BC06F5F7F4F8F4F9F4F16C04A
:10093000882311F096E911C0772321F09EE8872FD4
:10094000762F05C0662371F096E8862F70E060E090
:100950002AF09A95660F771F881FDAF7880F969509
:10096000879597F9089597F99F6780E870E060E0B0
:1009700008959FEF80EC089500240A941616170638
:1009800018060906089500240A9412161306140680
:1009900005060895092E0394000C11F4882352F0E3
:1009A000BB0F40F4BF2B11F460FF04C06F5F7F4F9B
:1009B0008F4F9F4F089557FD9058440F551F59F082
:1009C0005F3F71F04795880F97FB991F61F09F3F3C
:1009D00079F087950895121613061406551FF2CF65
:1009E0004695F1DF08C0161617061806991FF1CFB5
:1009F00086957105610508940895E894BB276627DC
:100A00007727CB0197F908956ED008F48FEF0895FA
:100A10000AD0C0CFB1DF28F0B6DF18F0952309F077
:100A2000A2CFA7CFEBCFC7DFA8F39923D9F35523E4
:100A3000C9F3950F50E0551FAA27EE27FF27BB27C4
:100A400000240894679520F4E20FF31FB41F0A1ED8
:100A5000220F331F441FAA1F6695A9F7779530F41C
:100A6000F30FB41F0A1E121E08F46395330F441FC0
:100A7000AA1F221F769599F7879520F4B40F0A1EB6
:100A8000121E631F440FAA1F221F331F8695A9F74A
:100A9000862F712D602D11249F5750408AF0E1F070
:100AA00088234AF0EE0FFF1FBB1F661F771F881FAA
:100AB00091505040A9F79E3F510570F054CF9ECF02
:100AC0005F3FECF3983EDCF3869577956795B79595
:100AD000F795E7959F5FC1F7FE2B880F911D9695BF
:100AE000879597F90895990F0008550FAA0BE0E82C
:100AF000FEEF16161706E807F907C0F012161306E0
:100B0000E407F50798F0621B730B840B950B39F41F
:100B10000A2661F0232B242B252B21F408950A2685
:100B200009F4A140A6958FEF811D811D0895BB2773
:100B30004A3031F4992322F4BDE2909581959F4F7C
:100B400001C0BB27FB015527AA27880F991FAA1FA1
:100B5000A41710F0A41B83955051B9F7A05DAA33D8
:100B600008F0A95DA193009779F7B111B1931192A3
:100B7000CB0100C0DC01FC01672F71917723E1F705
:100B8000329704C07C916D9370836291AE17BF075A
:080B9000C8F30895F894FFCFAB
:040B9800B80B460050
:00000001FF
